{
  "contractName": "MetaCoin",
  "abi": [
    {
      "inputs": [],
      "stateMutability": "nonpayable",
      "type": "constructor"
    },
    {
      "inputs": [
        {
          "internalType": "uint256",
          "name": "balance",
          "type": "uint256"
        },
        {
          "internalType": "uint256",
          "name": "amount",
          "type": "uint256"
        }
      ],
      "name": "InsufficientFunds",
      "type": "error"
    },
    {
      "anonymous": false,
      "inputs": [
        {
          "indexed": true,
          "internalType": "address",
          "name": "_from",
          "type": "address"
        },
        {
          "indexed": true,
          "internalType": "address",
          "name": "_to",
          "type": "address"
        },
        {
          "indexed": false,
          "internalType": "uint256",
          "name": "_value",
          "type": "uint256"
        }
      ],
      "name": "Transfer",
      "type": "event"
    },
    {
      "inputs": [
        {
          "internalType": "address",
          "name": "",
          "type": "address"
        }
      ],
      "name": "balances",
      "outputs": [
        {
          "internalType": "uint256",
          "name": "",
          "type": "uint256"
        }
      ],
      "stateMutability": "view",
      "type": "function",
      "constant": true
    },
    {
      "inputs": [
        {
          "internalType": "address",
          "name": "receiver",
          "type": "address"
        },
        {
          "internalType": "uint256",
          "name": "amount",
          "type": "uint256"
        }
      ],
      "name": "mint",
      "outputs": [],
      "stateMutability": "nonpayable",
      "type": "function"
    },
    {
      "inputs": [
        {
          "internalType": "address",
          "name": "receiver",
          "type": "address"
        },
        {
          "internalType": "uint256",
          "name": "amount",
          "type": "uint256"
        }
      ],
      "name": "sendCoin",
      "outputs": [],
      "stateMutability": "nonpayable",
      "type": "function"
    }
  ],
  "bytecode": "0x608060405234801561001057600080fd5b50336000806101000a81548173ffffffffffffffffffffffffffffffffffffffff021916908373ffffffffffffffffffffffffffffffffffffffff1602179055506106d2806100606000396000f3fe608060405234801561001057600080fd5b50600436106100415760003560e01c806327e235e31461004657806340c10f191461007657806390b98a1114610092575b600080fd5b610060600480360381019061005b9190610470565b6100ae565b60405161006d91906104b6565b60405180910390f35b610090600480360381019061008b91906104fd565b6100c6565b005b6100ac60048036038101906100a791906104fd565b610233565b005b60016020528060005260406000206000915090505481565b3373ffffffffffffffffffffffffffffffffffffffff1660008054906101000a900473ffffffffffffffffffffffffffffffffffffffff1673ffffffffffffffffffffffffffffffffffffffff1614610154576040517f08c379a000000000000000000000000000000000000000000000000000000000815260040161014b9061059a565b60405180910390fd5b80600160008473ffffffffffffffffffffffffffffffffffffffff1673ffffffffffffffffffffffffffffffffffffffff16815260200190815260200160002060008282546101a391906105e9565b925050819055508173ffffffffffffffffffffffffffffffffffffffff1660008054906101000a900473ffffffffffffffffffffffffffffffffffffffff1673ffffffffffffffffffffffffffffffffffffffff167fddf252ad1be2c89b69c2b068fc378daa952ba7f163c4a11628f55a4df523b3ef8360405161022791906104b6565b60405180910390a35050565b80600160003373ffffffffffffffffffffffffffffffffffffffff1673ffffffffffffffffffffffffffffffffffffffff1681526020019081526020016000205410156102f857600160003373ffffffffffffffffffffffffffffffffffffffff1673ffffffffffffffffffffffffffffffffffffffff16815260200190815260200160002054816040517f03eb8b540000000000000000000000000000000000000000000000000000000081526004016102ef92919061063f565b60405180910390fd5b80600160003373ffffffffffffffffffffffffffffffffffffffff1673ffffffffffffffffffffffffffffffffffffffff16815260200190815260200160002060008282546103479190610668565b9250508190555080600160008473ffffffffffffffffffffffffffffffffffffffff1673ffffffffffffffffffffffffffffffffffffffff168152602001908152602001600020600082825461039d91906105e9565b925050819055508173ffffffffffffffffffffffffffffffffffffffff163373ffffffffffffffffffffffffffffffffffffffff167fddf252ad1be2c89b69c2b068fc378daa952ba7f163c4a11628f55a4df523b3ef8360405161040191906104b6565b60405180910390a35050565b600080fd5b600073ffffffffffffffffffffffffffffffffffffffff82169050919050565b600061043d82610412565b9050919050565b61044d81610432565b811461045857600080fd5b50565b60008135905061046a81610444565b92915050565b6000602082840312156104865761048561040d565b5b60006104948482850161045b565b91505092915050565b6000819050919050565b6104b08161049d565b82525050565b60006020820190506104cb60008301846104a7565b92915050565b6104da8161049d565b81146104e557600080fd5b50565b6000813590506104f7816104d1565b92915050565b600080604083850312156105145761051361040d565b5b60006105228582860161045b565b9250506020610533858286016104e8565b9150509250929050565b600082825260208201905092915050565b7f466f7262696464656e2100000000000000000000000000000000000000000000600082015250565b6000610584600a8361053d565b915061058f8261054e565b602082019050919050565b600060208201905081810360008301526105b381610577565b9050919050565b7f4e487b7100000000000000000000000000000000000000000000000000000000600052601160045260246000fd5b60006105f48261049d565b91506105ff8361049d565b9250827fffffffffffffffffffffffffffffffffffffffffffffffffffffffffffffffff03821115610634576106336105ba565b5b828201905092915050565b600060408201905061065460008301856104a7565b61066160208301846104a7565b9392505050565b60006106738261049d565b915061067e8361049d565b925082821015610691576106906105ba565b5b82820390509291505056fea26469706673582212204ebf5d58742ff640dfdb179c648d3ede2036fec6decf5a4dc1eb3d0e8fffc27b64736f6c634300080c0033",
  "immutableReferences": {},
  "source": "// SPDX-License-Identifier: UNLICENSED\r\npragma solidity ^0.8.9;\r\n\r\ncontract MetaCoin {\r\n    address owner;\r\n    mapping(address => uint256) public balances;\r\n\r\n    event Transfer(address indexed _from, address indexed _to, uint256 _value);\r\n    error InsufficientFunds(uint256 balance, uint256 amount);\r\n\r\n    constructor() {\r\n        owner = msg.sender;\r\n    }\r\n\r\n    function mint(address receiver, uint256 amount) public {\r\n        require(owner == msg.sender, \"Forbidden!\");\r\n        balances[receiver] += amount;\r\n        emit Transfer(owner, receiver, amount);\r\n    }\r\n\r\n    function sendCoin(address receiver, uint256 amount) public {\r\n        if (balances[msg.sender] < amount)\r\n            revert InsufficientFunds(balances[msg.sender], amount);\r\n        balances[msg.sender] -= amount;\r\n        balances[receiver] += amount;\r\n        emit Transfer(msg.sender, receiver, amount);\r\n    }\r\n}\r\n",
  "sourcePath": "E:\\PROGRAMMING\\WORKSPACE\\PROJECTS\\metacoin-blockchain\\contracts\\MetaCoin.sol",
  "compiler": {
    "name": "solc",
    "version": "0.8.12+commit.f00d7308.Emscripten.clang"
  },
  "schemaVersion": "3.4.6",
  "updatedAt": "2022-03-30T03:34:04.456Z",
  "networkType": "ethereum",
  "devdoc": {
    "kind": "dev",
    "methods": {},
    "version": 1
  },
  "userdoc": {
    "kind": "user",
    "methods": {},
    "version": 1
  }
}